S017000041707054656D706C61746556312E312E73726563CA
S1130000581A00207D1A0000B9100000791A000067
S1130010791A0000791A0000791A00000000000023
S11300200000000000000000000000004D1B000064
S1130030791A0000000000006D1B0000791A00000E
S1130040791A0000791A0000791A0000791A000060
S1130050791A0000791A0000791A0000791A000050
S1130060791A0000791A0000791A0000791A000040
S1130070791A0000791A0000791A0000791A000030
S1130080791A0000791A0000791A0000791A000020
S1130090791A0000791A0000791A0000791A000010
S11300A0791A0000791A0000791A0000791A000000
S11300B0791A0000791A0000791A0000791A0000F0
S11300C0791A0000791A0000791A0000791A0000E0
S11300D0791A0000791A0000791A0000791A0000D0
S11300E0791A0000791A0000791A0000791A0000C0
S11300F0791A0000C9100000D9100000E9100000AE
S1130100F910000009110000191100002911000064
S113011039110000791A0000791A0000791A0000D8
S1130120791A0000791A0000791A0000791A00007F
S1130130791A00002D190000791A000041190000F5
S1130140791A0000791A0000791A0000791A00005F
S1130150791A0000791A0000791A0000791A00004F
S1130160791A0000791A0000791A0000791A00003F
S1130170791A00005519000069190000791A000065
S113018010B5054C237833B9044B13B10448AFF3CD
S113019000800123237010BD8408002000000000AB
S11301A0C425000008B5064B1BB106480649AFF349
S11301B000800648036813B1054B03B1984708BD96
S11301C000000000C425000088080020C4250000A9
S11301D00000000030B583B003460D4616481946AA
S11301E00D220023154CA047134A136913F0010F85
S11301F0FBD0114C20460DF107010DF10602104B06
S1130200984760200F4B9847204629460D2200232B
S11302100A4CA047084A136913F0010FFBD00648A3
S11302200DF107010DF10602054B98476020054BBF
S1130230984703B030BD00BF00800040B9120000F1
S1130240791200000100002010B582B001460C486C
S11302500D2200230B4CA047094A136913F0010F28
S1130260FBD007480DF106010DF10502064B984736
S11302706020064B98479DF8060002B010BD00BFF1
S113028000800040B9120000791200000100002033
S113029008B50620014B984708BD00BF490200007D
S11302A008B51120014B984708BD00BF4902000062
S11302B010B5154C4FF480536364C4F8683163651A
S11302C04FF480636364C4F86831A3654FF48023FA
S11302D06364C4F868316365AC200C4B98474FF4F1
S11302E000336364C4F8683163654FF48013A36713
S11302F0C4F88830C4F8C830C4F80831A361636214
S1130300A363A36010BD00BF00100E4001000020D5
S11303102DE9F04F93B0AD4C2046AD4B98474FF4C8
S11303200013A367C4F88830C4F8C830C4F808318F
S1130330A361A362A363A3604FF48003A367C4F81B
S11303408830C4F8C830C4F80831A361A362A36339
S1130350A3604FF40003A367C4F88830C4F8C8301E
S1130360C4F80831A361A362A363A3604FF0807350
S1130370A367C4F88830C4F8C830C4F80831A3614E
S1130380A362A363A3604FF40053A367C4F8883047
S1130390C4F8C830C4F80831A3616362A363A360DE
S11303A04FF48043A367C4F88830C4F8C830C4F855
S11303B00831A3616362A363A360864B4FF4805248
S11303C09A67C3F88820C3F8C820C3F808215A6183
S11303D09A629A639A60A4F5592420467E4B984702
S11303E00223236080232360636843F00103636076
S11303F0636843F010036360636823F08003636001
S1130400636843F002036360636823F0040363607A
S11304100024724D724F734E284621460822B84775
S1130420284621465F22B0472846214608226E4BC3
S113043098472846214600226C4B98472846214677
S113044000226B4B98470134042CE5D10126634B01
S11304501E605E4D4FF40067AF67C5F88870C5F83D
S1130460C870C5F80871AF61AF62AF63AF60DFF801
S1130470A8814046DFF858B1D84700240F9410945F
S113048011944FF416530C93C0230D930E974046CA
S11304900CA94FF03772574B98474046564B984734
S11304A04046564B984740463146DFF870A1D04746
S11304B0DFF86C91A02389F841334FF00208C9F8A2
S11304C008804FF48033AB67C5F88830C5F8C8306E
S11304D0C5F80831AB61AB62AB63AB604FF400436A
S11304E0AB67C5F88830C5F8C830C5F80831AB61CA
S11304F0AB62AB63AB60A5F539252846D8470994B0
S11305000A940B944FF4E1330693C023079308979E
S1130510284606A94FF03772364B98472846364B83
S113052098472846354B984728463146D0470423F8
S1130530C9F80830274B9E67C3F88860C3F8C860C1
S1130540C3F808619E619E629E639E60C3F87880D2
S1130550C3F88880C3F8C880C3F80881C3F818803A
S1130560C3F82880C3F83880C3F80880A5F540454F
S11305702846234B98474FF037730093214B019340
S113058002948DF80C408DF80D408DF80E408DF8D6
S11305900F408DF810408DF811408DF812408DF801
S11305A013408DF814408DF815408DF816408DF8E1
S11305B0174028462146144A3346144EB04728466D
S11305C06946134B9847134B98472BE000100E4095
S11305D03D0B000000120E406D1200000080004030
S11305E0751300008913000031130000F11200009C
S11305F011130000111A0000651A00006D1A0000A2
S113060079090000A0860100C913000075180000D4
S113061085170000B102000000400240751A000076
S113062000E100E0194B9847AC20194B9847194B4F
S1130630984741202146184EB0470620174DA84739
S113064042202146B0472046A84743202146B047D0
S1130650DC20A84745202146B0472046A84746202D
S11306602146B0472046A84747202146B0472046A8
S1130670A8474D202146B0470F20A8474E202146C9
S1130680B0470F20A84713B0BDE8F08F91020000D7
S113069001000020A1020000D50100004902000071
S11306A010B4036843F001023E4B5A67EFF3108223
S11306B072B6BFF35F8F00243B490C703B499961CC
S11306C00121996222B9384B1970BFF35F8F62B66A
S11306D0344A536913F0080FFBD0EFF3108172B65C
S11306E0BFF35F8F0022304B1A702E4B304A9A6151
S11306F0C2685A6329B901222B4B1A70BFF35F8F6A
S113070062B6284A536913F0080FFBD0EFF3108147
S113071072B6BFF35F8F0022234B1A70214B254A18
S11307209A6182681A6329B901221F4B1A70BFF3B8
S11307305F8F62B61B4A536913F0080FFBD0EFF3C7
S1130740108172B6BFF35F8F0022174B1A70154BDE
S1130750194A9A6102699A6329B90122124B1A70E3
S1130760BFF35F8F62B60F4A536913F0080FFBD0D3
S1130770EFF3108272B6BFF35F8F00210A4B19703A
S1130780084B0A499961416841F0010199622AB90B
S11307900122054B1A70BFF35F8F62B65DF8044BFC
S11307A0704700BF00080E4038000020280000AA4F
S11307B0340000AA300000AA380000AA00B589B0AD
S11307C0224B9B6A13F0020F09D0204B9B6A13F053
S11307D0010F04D01D4B5B6913F0040F33D10028C3
S11307E031D11B4B5B6913F0010F06D1194B9847AC
S11307F0174A536913F0010FFBD04FF48073019330
S11308000122124B1A641A46536913F0080FFBD0E5
S11308100E4B9B6A02228DF81C2023F4403343F0D4
S1130820021302934FF4B7630393002106914FF030
S113083004130493059101A8074B9847034A53698D
S113084013F0040FFBD009B05DF804FB00080E4060
S113085000040F405D080000A1060000EFF31082C1
S113086072B6BFF35F8F0021074B1970074B08491D
S11308709961084919622AB90122034B1A70BFF31E
S11308805F8F62B6704700BF3800002000040F403D
S1130890200000AA0DA1050070B4EFF3108272B617
S11308A0BFF35F8F00240D4B1C7085000C4B53F875
S11308B02040012606FA01F12143203505F47F7515
S11308C045F02A45074CA56543F8201022B9034B8F
S11308D01E70BFF35F8F62B670BC70473800002093
S11308E020000E4000000E4038B50446EFF310859A
S11308F072B6BFF35F8F00220A4B1A700A4B9B6AD1
S11309001BB901200521094B98472DB90122054B3C
S11309101A70BFF35F8F62B602202146034B9847DB
S113092038BD00BF3800002000000E4099080000C8
S113093038B50446EFF3108572B6BFF35F8F00221B
S11309400A4B1A700A4BDB6A1BB901200621094BBA
S113095098472DB90122054B1A70BFF35F8F62B619
S113096003202146034B984738BD00BF38000020C0
S113097000000E4099080000604B984200F0B880D7
S113098060D8A3F5A023984200F0B2802FD8A3F535
S11309908033984200F0AC8014D8A3F58033984299
S11309A000F0A68004D8B0F1402F40F0A4809FE06E
S11309B0534B984200F09C8003F58043984240F0EA
S11309C09A8095E04F4B984200F0928005D8A3F5A9
S11309D07053984240F08F808AE04B4B984200F06D
S11309E0878003F5F843984240F0858080E0474BC8
S11309F098427DD011D8A3F58033984278D004D89A
S1130A00A3F58043984276D172E0414B98426FD06F
S1130A1003F5804398426ED16AE03E4B984267D01A
S1130A2008D8A3F50043984262D003F58043984266
S1130A3061D15DE0384B98425AD003F58043984227
S1130A4059D155E0354B984252D027D8A3F57C3381
S1130A5098424DD011D8A3F50433984248D004D815
S1130A60A3F58043984246D142E02D4B98423FD0B3
S1130A7003F5806398423ED13AE02A4B984237D03E
S1130A8004D8A3F50053984235D131E0264B98425F
S1130A902ED003F5805398422DD129E0234B984260
S1130AA026D011D8A3F57843984221D004D8A3F5D1
S1130AB0806398421FD11BE01D4B984218D003F568
S1130AC08063984217D113E01A4B984210D008D88B
S1130AD0A3F5006398420BD003F5806398420AD1D2
S1130AE006E0154B984203D003F58063984202D187
S1130AF04FF0377070470020704700BF00800740F8
S1130B000000014000C0014000C401400000044056
S1130B10008003400080064000C0064000000E40F4
S1130B2000000A4000400A4000500A4000000F4004
S1130B30000C0E40000C0F4000100F4008B5B34BE2
S1130B40984200F05A816AD8A3F5A023984200F095
S1130B5013812FD8A3F58033984200F0F28014D883
S1130B60A3F58033984200F0D28004D8B0F1402F2E
S1130B7000F0C98008BDA64B984200F0CC8003F574
S1130B808043984200F0D28008BDA24B984200F006
S1130B90E08005D8A3F57053984200F0D68008BDD4
S1130BA09D4B984200F0D98003F5F843984200F039
S1130BB0D88008BD994B984200F0078115D8A3F559
S1130BC08033984200F0EE8005D8A3F58043984224
S1130BD000F0DD8008BD924B984200F0EE8003F5F2
S1130BE08043984200F0ED8008BD8E4B984200F09F
S1130BF0F8800AD8A3F50043984200F0EA8003F590
S1130C008043984200F0E98008BD874B984200F089
S1130C10EC8003F58043984200F0EB8008BD834BE1
S1130C20984200F04D8134D8A3F57C33984200F00B
S1130C30278115D8A3F50433984200F00D8105D817
S1130C40A3F58043984200F0DC8008BD784B9842BD
S1130C5000F0068103F58063984200F0098108BD25
S1130C60744B984200F020810AD8A3F5405398426F
S1130C7000F00A8103F50053984200F00D8108BD8D
S1130C806D4B984200F0188103F52043984235D00B
S1130C9008BD6A4B984200F02C8115D8A3F578431F
S1130CA0984200F0178105D8A3F58063984200F0BC
S1130CB00C8108BD624B984200F0118103F58063FA
S1130CC0984200F0118108BD5E4B984200F02081EB
S1130CD00AD8A3F50063984200F0108103F58063FD
S1130CE0984200F0108108BD574B984200F01581DE
S1130CF003F58063984200F0158108BD01200921A5
S1130D00524B984708BD0020514B984708BD01201D
S1130D104F4B984708BD02204D4B9847434B1A6CE4
S1130D2042F055024B4999651A6408BD0320484BAB
S1130D3098473E4B1A6C42F05502464999651A642D
S1130D4008BD0420424B984708BD0520404B9847F6
S1130D5008BD06203E4B984708BD07203C4B9847EA
S1130D6008BD08203A4B9847304B1A6C42F00402F5
S1130D70384999651A6408BD0920354B98472B4BAF
S1130D801A6C42F00402334999651A6408BD0A20BA
S1130D902F4B9847254B1A6C42F004022D49996554
S1130DA01A6408BD0B202A4B9847204B1A6C42F05A
S1130DB00402284999651A6408BD0C20244B9847FD
S1130DC008BD0D20224B984708BD0E20204B9847A4
S1130DD008BD0F201E4B984708BD10201C4B984798
S1130DE008BD11201A4B984708BD1220184B98478C
S1130DF008BD1320164B984708BD1520144B98477F
S1130E0008BD1620124B984708BD00BF008007405C
S1130E100000014000C0014000C401400000044043
S1130E20008003400080064000C0064000000E40E1
S1130E3000000A4000500A4000600A4000000F40D1
S1130E40000C0E40000C0F4000100F4099080000E9
S1130E50E9080000400000AA1720354B984708BD58
S1130E6001200146334B98470020334B984708BD77
S1130E70012002212F4B984701202F4B984708BD92
S1130E8002202D4B984708BD01200021294B98478B
S1130E900320294B984708BD01200421254B98477E
S1130EA00420254B984708BD01200321214B984776
S1130EB00520214B984708BD06201F4B984708BDC5
S1130EC0042000211B4B984708BD04200121194B25
S1130ED0984708BD04200221164B984708BD0420FA
S1130EE00321144B984708BD04200146114B984731
S1130EF008BD052000210F4B984708BD052001219E
S1130F000C4B984708BD052002210A4B984708BDA1
S1130F1005200321074B984708BD05200421054BF4
S1130F20984708BD05200146024B984708BD00BFFD
S1130F30E90800009908000031090000EFF310826D
S1130F4072B6BFF35F8F0021074B1970074B4FF048
S1130F502A41996518602AB90122034B1A70BFF31C
S1130F605F8F62B6704700BF3800002000000E405B
S1130F7038B5194C2046194B98470123A3602246E3
S1130F80D36813F0010FFBD00020154B98474FF0A6
S1130F90377000210A46134B98470320124B984799
S1130FA012480021124A134B9847104D124C284600
S1130FB0A04710F0010FFAD0EFF3108372B6BFF31D
S1130FC05F8F00210D4A11702BB901220B4B1A704F
S1130FD0BFF35F8F62B638BD00040A403D0B0000CA
S1130FE0BD070000D91100003D0F000000000F40B4
S1130FF080A90300011000006510000038000020E3
S11310002DE9F843C36923F0030343F00C03EFF322
S1131010108672B6BFF35F8F00250F4C25700F4CFE
S1131020D4F808802768D4F804906260052222600E
S113103001F0030119430A4B98472560C4F8049052
S1131040C4F8088027602EB90122034B1A70BFF33D
S11310505F8F62B6BDE8F8833800002010E000E03E
S11310600D0000204069704708B5034B53F8203049
S113107003B1984708BD00BF1C0A002008B50B4BFC
S11310809847EFF3108272B6BFF35F8F0021084BCD
S11310901970084BD9790131D9712AB90122044B4D
S11310A01A70BFF35F8F62B608BD00BF3D0B00002E
S11310B038000020140A002008B50020014B98478E
S11310C008BD00BF6910000008B50120014B984716
S11310D008BD00BF6910000008B50220014B984705
S11310E008BD00BF6910000008B50320014B9847F4
S11310F008BD00BF6910000008B50420014B9847E3
S113110008BD00BF6910000008B50520014B9847D1
S113111008BD00BF6910000008B50620014B9847C0
S113112008BD00BF6910000008B50720014B9847AF
S113113008BD00BF6910000008B50820014B98479E
S113114008BD00BF69100000054B1B6823F0400375
S113115000280CBF002240221343014A1360704749
S113116000000A40024B986800F00100704700BF7D
S113117000000A4010B5024CA0470028FCD010BD66
S11311806511000038B505460C46104B1B6898479E
S11311900F4B5B68002C08DB45F02545240224F046
S11311A07F4424F0FF042C4304E023F03F0444F084
S11311B025442C43064B5C609A6802F00C02054BF4
S11311C01A60024B1B68984738BD00BF3C000020E2
S11311D000000A40A008002008B500292DD11D4BAD
S11311E0984214D91C4B984208D801201B4B9847AD
S11311F011204FF0FF311A4B984708BD0120174BBF
S1131200984710204FF0FF31154B984708BD5AB14D
S1131210144B984208D80120104B984711204FF0E6
S1131220FF310F4B984708BD00200C4B9847112005
S11312304FF0FF310A4B984708BD0B4B98428CBFC7
S113124001200020054B984711204FF0FF31044B3B
S1131250984708BD80A812010051250249110000D9
S113126085110000001BB70000127A0008B5014B7D
S1131270984708BD3D0B000010B443F6992301E0E4
S1131280013B12D0046914F0010FF9D08368094CB2
S11312902360406810F0020F1CBFC3F303431370B4
S11312A0044B1B680B80002000E001205DF8044B18
S11312B0704700BFA408002030B443F6992401E02D
S11312C0013C11D0056915F0020FF9D0446814F0FF
S11312D0020F06D0120402F4702211430BB141F044
S11312E08071C160002000E0012030BC704700BF65
S11312F032B100EB8100036B43F0010303637047D9
S113130000EB8100036B23F001030363704700BF0C
S113131032B100EB8100036B43F0020303637047B7
S113132000EB8100036B23F002030363704700BFEB
S1131330042A0AD100EB8100036B23F00803036342
S1131340036B43F004030363704752B900EB81005D
S1131350036B23F008030363036B23F004030363A9
S11313607047082A05D100EB8100036B43F00803A2
S11313700363704700EB81010B6B23F0F0030B63F5
S11313800B6B1A430A63704700EB81010B6B23F468
S11313907F430B630B6B43EA02220A63704700BF6F
S11313A0084B98420AD0A3F58043984208D0A3F58D
S11313B0B823984214BF00200120704703207047CF
S11313C00220704700C0074010B582B004464FF4B5
S11313D0FA630193B14B9847E369B14A52F820206C
S11313E0134013F4A06F17D003F48073002B0CBFC9
S11313F0FE22FC22AB4B1A54236923F400432361DD
S1131400E36823F40043E3604FF0FF33E362636275
S11314100022A54B1A543FE113F0010F7ED0A34ADA
S11314206169C9B252F8203003F8011B42F8203038
S11314309F4B53F82020013A43F8202053F82030E2
S1131440002B40F02981984B1B5C13F0FF0F55D003
S1131450984B53F82030002B50D0974B53F8203042
S1131460924A42F82030934A52F82020FF2A0ED99B
S1131470FF218F4A42F820100B448F4A42F8203053
S11314808C4B53F82020FF3A43F8202008E0894B86
S113149053F82010864A42F82010002243F82020F6
S11314A0844B53F820302BB34FF4FA630193236930
S11314B013F4004F04D0019B5A1E0192002BF6D165
S11314C0E36823F03F7323F448337A4A52F8202028
S11314D0FF2A04D943F03F7343F4403308E0754ACC
S11314E052F8202043F48043120402F47F02134391
S11314F02361D1E000226C4B1A54CDE001236362D6
S11315000022694B1A540823E3622362644B53F8A4
S1131510202042F0080243F82020BDE013F0020F1F
S113152000F0B480654B53F820309BB9022363620A
S1131530604B53F8203013B900225B4B1A54082334
S1131540E3622362564B53F8202042F0080243F82A
S11315502020A1E05A4A52F82030591C42F82010A9
S11315601B78DBB2A361554B53F82020013A43F8B2
S1131570202053F82030002B40F08E804A4B1B5C17
S113158013F0FF0F53D04F4B53F82030002B4ED0A5
S11315904D4B53F820304A4A42F82030494A52F819
S11315A02020FF2A0ED9FF21444A42F820100B4480
S11315B0454A42F82030434B53F82020FF3A43F881
S11315C0202008E03F4B53F820103C4A42F82010FA
S11315D0002243F820203B4B53F820301BB34FF438
S11315E0FA630193236913F4004F04D0019B5A1E3C
S11315F00192002BF6D1E36823F47F0323F4005314
S1131600304A52F82020FF2A02D943F47F0308E02D
S11316102C4A52F8202043F48043120402F47F023F
S11316201343236138E000221F4B1A5434E01E4B4D
S11316301B5C13F0FF0F2FD01E4B53F820305BB30D
S11316404FF4FA630193236913F4004F04D0019B10
S11316505A1E0192002BF6D1E36823F03F7323F462
S11316604833144A52F82020FF2A04D943F03F7328
S113167043F4403308E00F4A52F8202043F48043F7
S1131680120402F47F021343236105E013F0080FF0
S113169002D00823E362636202B010BDA11300000C
S11316A0F0080020DC080020B80800201009002001
S11316B000090020BC080020CC08002020090020DC
S11316C0E0080020A80800203009002070B4B2FB14
S11316D0F1F25208FF2A0BD900210131C9B2520894
S11316E0FF2A02D90829F8D118E0072901D917E0FF
S11316F000215408E6B2150405F47F0535431B06A2
S113170003F070632B43121B120292B213430907B6
S113171001F0E04119434160002002E0F82000E0BC
S1131720F82040B270BC704770B4B2FBF1F25208BA
S1131730FF2A0BD900210131C9B25208FF2A02D96C
S11317400829F8D118E0072901D917E00021540825
S1131750E6B2150405F47F0535431B0603F07063F8
S11317602B43121B120292B21343090701F0E0410A
S113177019438163002002E0F82000E0F82040B221
S113178070BC704770B505460C46344B984701232E
S11317902B6080232B604FF0FF33EB62A37B23B1DC
S11317A010232B604FF0FF33AB60616831B12846E2
S11317B02268237B2A4EB04700284AD1A16831B160
S11317C028462268637B274EB047002843D16368CC
S11317D0254A93428CBF4FF040534FF00053E17BB6
S11317E0090601F04071227C120402F4E0220A434B
S11317F0A17C01F007010A43617C090201F44071F4
S11318000A431343EB63E27D02F0070242F0805285
S1131810E37C1B0603F040731343627D120402F45D
S1131820E0221343227D120502F440121343A27DE9
S1131830120202F4407213432B640C4BD91D002294
S113184003F8012F8B42FBD10122094BDA710020EE
S113185002E0F82000E0F82040B270BD3D0B00002B
S1131860CD160000291700003F420F00130A002084
S1131870140A00202DE9F04104460F461646984606
S1131880254B9847254B9C4209D0A3F580439C42A5
S11318900AD0A3F5B8239C4232D0002500E04E259F
S11318A01F4B9C4201D120E04D251E4B43F8206084
S11318B0EDB26AB2500905F00F05012303FA05F5EC
S11318C000F16001184B43F821504FEA08185FFA01
S11318D088F802F1604202F5614282F80083124BFB
S11318E043F820502762BDE8F0810E4B43F8206096
S11318F04FF000550C4BC3F8845101203D22E4E71E
S1131900084B43F820604FF00045074BC3F884515F
S113191001203F22D9E700BFA113000000C0074007
S113192000800140400A002000E100E008B5024BBD
S11319301B680248984708BD400A00200080014007
S113194008B5024B5B680248984708BD400A00206E
S113195000C0014008B5024B9B680248984708BD87
S1131960400A00200080074008B5024BDB680248AB
S1131970984708BD400A002000C0074010B40B017E
S113198093420DD91AE0416841F40021416042EAD2
S113199003430362002020E001201EE001201CE03C
S11319A0D20002EB5302B2FBF3F3DA0803F00703AD
S11319B0541E4FF6FE718C42E9D9EDE7C900D300FD
S11319C003EB5103B3FBF1F3DA0803F00703541EEE
S11319D04FF6FE718C42D6D9E0E75DF8044B7047B0
S11319E00A4BC0F8E43000234360436283628823D7
S11319F00360242303604FF4807303604FF40023D7
S1131A0003604FF400330360704700BF0041535537
S1131A1070B505460C4616460F4B984700210F4BF0
S1131A2019609CB12846216832460D4B98470346FD
S1131A3070B9A16862680A4321690A43E0680243F5
S1131A4006490A6069680A436A6002E0012300E00B
S1131A500123184670BD00BFE119000040090020B1
S1131A607D19000040230360704700BF102303600A
S1131A70704700BF81607047FEE700BF10B5194B87
S1131A80194A9A4203D0194B164A9A4204D3184B66
S1131A90184A9A420FD31AE0174B184CE41A24F050
S1131AA00304043400230F480F495A581A500433CE
S1131AB0A342FAD1EBE7124B1249C91A21F00301F0
S1131AC01A1D1144002243F8042F8B42FBD10E4B04
S1131AD00E4A22F07F029A600D4B98470D4B9847AF
S1131AE0FEE700BF00000020C42500008408002099
S1131AF0540A0020840800200400002087080020E5
S1131B00800800204F0A002000ED00E000000000E3
S1131B10A51C0000811C0000094B1B6813B9094A6D
S1131B20074B1A60064B1B681A180749914204DBDD
S1131B301046034A1060184670474FF0FF30704754
S1131B4044090020581A0020FC7F0020064B196825
S1131B500868B0E8F00F80F309884FF0000080F3C4
S1131B6011884EF00D0E7047D4090020EFF3098060
S1131B700C4B1A6820E9F00F10602DE908404FF073
S1131B80A00080F3118800F00FF84FF0000080F3FC
S1131B901188BDE8084019680868B0E8F00F80F3C0
S1131BA009887047D40900202B4B1B6843B92B4B81
S1131BB01B6803EB83039B00294AD35823B10FE02E
S1131BC00122284B1A607047244B25491A68013AB0
S1131BD01A601A6802EB820251F82220002AF5D01A
S1131BE01E4B1B6803EB83031D4A02EB83035A68F5
S1131BF052685A6003F108018A4204BF52685A606D
S1131C005B68DA68184B1A60184B1B681BB3164BD9
S1131C101B685A6C164B1B689A421CD0154B1B68E8
S1131C200833154A12689A4212D90F4B1B685A6C32
S1131C300F4B1A600F4B1868104909680160196846
S1131C400431196019680A601A6804321A6070470E
S1131C500022064B1A607047D8090020480900206A
S1131C6050090020CC090020D4090020C809002014
S1131C7040000020D0090020DC0900204C0900208D
S1131C8008B5044B98470448044B9847044B9847BD
S1131C90002008BD710F000000100F407D100000EF
S1131CA01103000070B50F4E0F4D761BB61007D010
S1131CB0043D0024013455F8043F9847A642F9D165
S1131CC00A4E0B4D761B00F06BFCB61008D0043D99
S1131CD00024013455F8043F9847A642F9D170BD59
S1131CE070BD00BFAC250000AC250000B425000089
S1131CF0AC250000024B0146186800F003B800BF91
S1131D00700400202DE9F04F01F10B05162D83B06E
S1131D10064627D935F0070527D4A94225D83046E9
S1131D2000F08CFAB5F5FC7F26D2C14F4FEAD50CF2
S1131D3007EBCC03DC689C4200F0D2816368E26864
S1131D40A16823F00303234430465D68CA6045F06C
S1131D50010591605D6000F073FA0834204603B019
S1131D60BDE8F08F1025A942D9D900240C232046C0
S1131D70336003B0BDE8F08F5FEA552C00F08A8031
S1131D80BCF1040F00F260814FEA951C0CF1380C91
S1131D904FEA4C01A64F07EB8101CC68A14205D163
S1131DA00CE0002B7ADAE468A14207D0626822F0E2
S1131DB00302531B0F2BF4DD0CF1FF3C0CF1010C5F
S1131DC09B4B3C6903F1080E744500F07E81616809
S1131DD021F003014A1B0F2A00F36481002AC3F88F
S1131DE014E0C3F810E06ADAB1F5007F80F03A81BC
S1131DF0C90803EBC1004FEAA1085A688168A160D1
S1131E004FF0010909FA08F848EA0202E0605A6052
S1131E108460CC604FEAAC030120984090425BD8C8
S1131E20024206D12CF0030C400002420CF1040CD7
S1131E30FAD007EBCC084446E146E3689C4207D15C
S1131E4045E1002A80F25681DB689C4200F03F8124
S1131E50596821F003014A1B0F2AF2DD1C46D3F80E
S1131E600CC054F8088F591945F0010942F00105D6
S1131E70C3F804903046C8F80CC0CCF808807961E7
S1131E803961C1F80CE0C1F808E04D608A5000F0F7
S1131E90D7F963E77E214FF03F0C7BE72244E368E8
S1131EA05068A16840F00105CB60304699605560E8
S1131EB000F0C6F90834204603B0BDE8F08F214491
S1131EC030464B6843F001034B6000F0B9F9083425
S1131ED0204603B0BDE8F08FBC68636823F00309B3
S1131EE0A94504D3C5EB09030F2B00F39180514B93
S1131EF0514A19681368013305EB010A04EB090B15
S1131F0000F061810AF5805A0AF10F0A2AF47F6A07
S1131F102AF00F0A30465146019200F093F9B0F1CD
S1131F20FF3F8046019A00F00081834500F2FA8069
S1131F30DFF810C1DCF80030C3455344CCF800305E
S1131F4000F04A8112683C4901321BBFCBEB080BFD
S1131F505B44C1F80080CCF8003018F0070300F0AF
S1131F601381C3F10802C3F5805390440833C2447B
S1131F70CAF30B0ACAEB030A51463046CDF804C033
S1131F8000F060F9431CDDF804C000F03581C8EBB3
S1131F900002524442F00102DCF80030C7F8088025
S1131FA05344BC42C8F80420CCF80030DFF894A0B5
S1131FB015D0B9F10F0F40F2EA806168A9F10C0263
S1131FC022F0070201F0010EA118052042EA0E0ECC
S1131FD00F2AC4F804E04860886000F21181174AAF
S1131FE0BC6811688B4288BF1360154A11688B4224
S1131FF088BF1360626822F003029542C5EB0203B6
S113200001D80F2B04DC304600F01AF90024A5E6B1
S1132010621943F0010345F0010565603046BA607A
S1132020536000F00DF90834204603B0BDE8F08F8A
S113203074040020E809002080080020E40900203E
S1132040E0090020EC090020BCF1140F61D9BCF1B7
S1132050540F00F28F804FEA153C0CF16E0C4FEADE
S11320604C0197E64B0A042B58D9142B00F2AE808E
S113207003F15B02500007EB8000DFF8BC8183684A
S1132080834200F08A805A6822F00302914202D20D
S11320909B689842F7D1D9687A68E160A3608C6044
S11320A0DC60B7E6611942F0010745F0010565609F
S11320B0304659611961C1F80CE0C1F808E04F607D
S11320C08A50083400F0BCF848E65A68A2E609F1E0
S11320D0010919F0030F04F108047FF4AEAE2DE0FA
S11320E004F108036469A34208BF0CF1020C3FF435
S11320F067AE23E619441C464868DB6854F8082F89
S113210040F001054D603046D3609A6000F098F8C5
S113211024E60CF15B0C4FEA4C013BE68A093832A9
S11321205000A8E7BC423FF403AFBC68626822F0E9
S1132130030262E7D8F8008098457BD11CF0030FB6
S1132140A8F108030CF1FF3CF4D17B6823EA0003F7
S11321507B60400098423FF6BFAE00283FF4BCAE1F
S11321600342CC467FF465AE400003420CF1040CFC
S1132170FAD05EE6BCF5AA7F1AD84FEAD53C0CF13A
S1132180770C4FEA4C0105E64FF48053EFE6012348
S1132190C8F80430444600222FE791100120D8F8F3
S11321A0042000FA01F10A43C8F80420194674E730
S11321B040F254539C451BD84FEA954C0CF17C0CCF
S11321C04FEA4C01E6E50AF1100AA3E6542B1FD8A6
S11321D00A0B6E3250004EE7CBF30B0100297FF45B
S11321E0B1AE0AEB0901BA6841F001015160F6E6AB
S11321F0FC214FF07E0CCDE501224FF0000ACBE626
S113220004F10801304600F0A5F8DAF80030E6E6FB
S1132210B3F5AA7F03D8CA0B773250002BE740F2FC
S11322205452934203D88A0C7C32500023E7FC209A
S11322307E2220E77B688CE774040020704700BF8F
S1132240704700BF38B5074C002305460846236095
S1132250FFF762FC431C00D038BD2368002BFBD081
S11322602B6038BD500A0020024B13B1024800F025
S113227005B87047000000008922000001460020D4
S11322800246034600F034B938B5094D094C641BC5
S1132290A41018BF05EB840505D0013C55F8043D96
S11322A09847002CF9D1BDE8384000F083B900BF4D
S11322B0C0250000C4250000F8B5234D0F46044690
S11322C0FFF7BCFFAB685E6826F00306F11B01F65E
S11322D0EF7121F47F6121F00F01A1F58057B7F56B
S11322E0805F07DB20460021FFF7ACFFAB68334477
S11322F0984204D02046FFF7A3FF0020F8BD2046F3
S11323007942FFF79FFF01300DD0104BAA6819687E
S1132310F61B46F001062046C91B56601960FFF7FC
S11323208FFF0120F8BD20460021FFF78BFFAB682B
S1132330C21A0F2ADEDD064D04492D6842F001025F
S1132340401B5A600860D5E774040020EC090020A3
S1132350800800202DE9F0410D460646002955D09D
S1132360FFF76CFF55F8041CDFF874C121F001037A
S1132370A5F10804E218DCF808005768904227F039
S1132380030769D011F00101576032D00021D01940
S11323904068C00706D43B44906800294ED0D268F8
S11323A0C260906043F001026260E350E1B9B3F5AA
S11323B0007F2DD35A0A042A6AD89809383041007C
S11323C00CEB810C4649DCF80820624566D0516864
S11323D021F003018B4202D292689445F7D1D3686D
S11323E0E360A2609C60D4603046BDE8F041FFF732
S11323F027BF55F8085C641B0CF10808A068404529
S11324002B4443D0E568C560A860C0E7BDE8F0810F
S1132410DB080CEBC3020125DCF804009168A16021
S11324209B1005FA03F31843E260CCF804009460AF
S11324303046CC60BDE8F041FFF702BF294DA84209
S1132440ADD143F00102CCF81440CCF81040E06068
S1132450A0606260E350C7E71F44CB0707D455F878
S1132460083CE41A1F44A268E368D3609A601E4BD8
S11324701B6847F001029F426260CCF80840B3D366
S11324801A4B30461968FFF717FFADE701217EE7C5
S1132490142A0CD802F15B00410091E74B688010CC
S11324A0012505FA00F003434B60134698E7542ACC
S11324B003D8180B6E30410082E7B2F5AA7F03D827
S11324C0D80B773041007BE740F254518A4203D85D
S11324D0980C7C30410073E7FC217E2070E700BF3C
S11324E0740400207C0400207C080020E8090020FB
S11324F0F0B5274C2668D6F8484185B00746002C2D
S113250041D065681F2D1EDD224818B94FF0FF30F9
S113251005B0F0BD4FF4C870039102920193FFF728
S1132520E9FB0399029A019B04460028EED0D6F8F1
S113253048512560002060600546C6F84841C4F84B
S11325408801C4F88C013FB9AB1C002001356560DB
S113255044F8231005B0F0BD04EB85004FF0010CE6
S1132560C0F88820D4F888610CFA05F21643022FCB
S1132570C4F88861C0F80831E6D1D4F88C311A4324
S1132580C4F88C21E0E706F5A674C6F84841B8E71C
S11325909C250000F51C00004300000048000020BA
S11325A0F8B500BFF8BC08BC9E467047692200001D
S11325B0A5010000F8B500BFF8BC08BC9E467047F2
S10725C08101000091
S11325C4BFF35F8F0138FBD1704700BF074A084B44
S11325D49A61C1611946074A4869136803F4803350
S11325E410F0010001D1002BF6D070471C0000AAA2
S11325F400000F4010E000E001000000751100002D
S1132604FF0000000000000000000000340300206C
S11326149C030020040400200000000000000000CB
S113262400000000000000000000000000000000A2
S113263400000000000000000000000098250000D5
S11326440000000000000000000000000000000082
S11326540000000000000000000000000000000072
S11326640000000000000000000000000000000062
S11326740000000000000000000000000000000052
S11326840000000000000000000000000000000042
S11326940000000000000000000000000000000032
S11326A40000000000000000000000000000000022
S11326B401000000000000000E33CDAB34126DE6BF
S11326C4ECDE05000B000000000000000000000028
S11326D400000000000000000000000000000000F2
S11326E400000000000000000000000000000000E2
S11326F400000000000000000000000000000000D2
S113270400000000000000000000000000000000C1
S1132A34480000200000000000000000740400208E
S1132A44740400207C0400207C04002084040020FE
S1132A54840400208C0400208C04002094040020AE
S1132A64940400209C0400209C040020A40400205E
S1132A74A4040020AC040020AC040020B40400200E
S1132A84B4040020BC040020BC040020C4040020BE
S1132A94C4040020CC040020CC040020D40400206E
S1132AA4D4040020DC040020DC040020E40400201E
S1132AB4E4040020EC040020EC040020F4040020CE
S1132AC4F4040020FC040020FC040020040500207D
S1132AD4040500200C0500200C050020140500202A
S1132AE4140500201C0500201C05002024050020DA
S1132AF4240500202C0500202C050020340500208A
S1132B04340500203C0500203C0500204405002039
S1132B14440500204C0500204C05002054050020E9
S1132B24540500205C0500205C0500206405002099
S1132B34640500206C0500206C0500207405002049
S1132B44740500207C0500207C05002084050020F9
S1132B54840500208C0500208C05002094050020A9
S1132B64940500209C0500209C050020A405002059
S1132B74A4050020AC050020AC050020B405002009
S1132B84B4050020BC050020BC050020C4050020B9
S1132B94C4050020CC050020CC050020D405002069
S1132BA4D4050020DC050020DC050020E405002019
S1132BB4E4050020EC050020EC050020F4050020C9
S1132BC4F4050020FC050020FC0500200406002078
S1132BD4040600200C0600200C0600201406002025
S1132BE4140600201C0600201C06002024060020D5
S1132BF4240600202C0600202C0600203406002085
S1132C04340600203C0600203C0600204406002034
S1132C14440600204C0600204C06002054060020E4
S1132C24540600205C0600205C0600206406002094
S1132C34640600206C0600206C0600207406002044
S1132C44740600207C0600207C06002084060020F4
S1132C54840600208C0600208C06002094060020A4
S1132C64940600209C0600209C060020A406002054
S1132C74A4060020AC060020AC060020B406002004
S1132C84B4060020BC060020BC060020C4060020B4
S1132C94C4060020CC060020CC060020D406002064
S1132CA4D4060020DC060020DC060020E406002014
S1132CB4E4060020EC060020EC060020F4060020C4
S1132CC4F4060020FC060020FC0600200407002073
S1132CD4040700200C0700200C0700201407002020
S1132CE4140700201C0700201C07002024070020D0
S1132CF4240700202C0700202C0700203407002080
S1132D04340700203C0700203C070020440700202F
S1132D14440700204C0700204C07002054070020DF
S1132D24540700205C0700205C070020640700208F
S1132D34640700206C0700206C070020740700203F
S1132D44740700207C0700207C07002084070020EF
S1132D54840700208C0700208C070020940700209F
S1132D64940700209C0700209C070020A40700204F
S1132D74A4070020AC070020AC070020B4070020FF
S1132D84B4070020BC070020BC070020C4070020AF
S1132D94C4070020CC070020CC070020D40700205F
S1132DA4D4070020DC070020DC070020E40700200F
S1132DB4E4070020EC070020EC070020F4070020BF
S1132DC4F4070020FC070020FC070020040800206E
S1132DD4040800200C0800200C080020140800201B
S1132DE4140800201C0800201C08002024080020CB
S1132DF4240800202C0800202C080020340800207B
S1132E04340800203C0800203C080020440800202A
S1132E14440800204C0800204C08002054080020DA
S1132E24540800205C0800205C080020640800208A
S1132E34640800206C0800206C08002000000200D4
S1072E44FFFFFFFF8A
S9031A7D65
